:1000000007C1000034C1000032C1000030C100004F
:100010002EC100002CC100002AC1000028C1000030
:1000200026C1000024C1000022C1000020C1000040
:100030001EC100001CC100001AC1000018C1000050
:1000400016C1000014C1000012C1000010C1000060
:100050000EC100000CC100000AC1000008C500006C
:1000600006C10000D6C50000ABC5000000C10000FD
:10007000FEC00000FCC00000FAC00000F8C0000094
:10008000F6C00000F4C00000F2C00000F0C00000A4
:10009000EEC00000ECC00000EAC00000E8C00000B4
:1000A000E6C00000E4C00000E2C00000E0C00000C4
:1000B000DEC00000DCC00000DAC00000D8C00000D4
:1000C000D6C00000D4C00000D2C00000D0C00000E4
:1000D000CEC00000CCC000003DC5000012C500002D
:1000E000C6C00000AC01AF019E01A201A601E6015D
:1000F000B301B701BD01C101C501CB01CF01D301DE
:10010000E601D901DD01E10100000A0B02090C0D35
:100110000E080703040100000000000000000000BA
:1001200000000000000000000000000000000000CF
:10013000000000001211100000000000000000008C
:1001400000000000000000000000000000000000AF
:100150002200250028002B002E003100340002016F
:100160000000050108010B01000021002400270008
:100170002A002D00300033000101000004010701B6
:100180000A0105050505070508080808020202021C
:100190000A0A080804040404010101010101010123
:1001A0000303030303030303040707070C0C0C0CEE
:1001B0000C0C0C0C020202020606060606060606D7
:1001C0000B0B0B0B0B0B0B0B010210202008081064
:1001D00020401020408002010201080402010102B7
:1001E0000408102040808040201008040201800490
:1001F00002018040201008040201080402010102EB
:1002000004081020408001020408102040803F06AE
:1002100011241FBECFEFD1E2DEBFCDBF00E00CBF87
:1002200024E0AEEBB2E001C01D92AE30B207E1F7C0
:1002300012E0A0E0B2E0E2EAF4E100E00BBF02C0AD
:1002400007900D92AE3BB107D9F711E0C8E0D1E0BD
:1002500000E005C021970109802FFE0103D7C730B8
:10026000D10780E00807B1F75DD50C944F0AC8CEDE
:10027000FC01A089B18982E08C93A485B5851C928C
:10028000A685B78580E18C93108EA489B58986E018
:100290008C93A289B3898C9180618C93A289B38954
:1002A0008C9188608C93A289B3898C9180688C939F
:1002B0000288F389E02D80818F7D8083089590E00E
:1002C000FC01E853FE4F2491FC01EE57FE4F849150
:1002D000882399F090E0880F991FFC01E859FE4FA0
:1002E000A591B491FC01E25BFE4F859194918FB78B
:1002F000F894EC91E22BEC938FBF0895362F90E0A9
:10030000FC01E85FFE4F4491FC01E853FE4F24914D
:10031000FC01EE57FE4F9491992309F46BC04423DE
:1003200009F454C050E0FA013197E231F10508F0C8
:100330004DC08827EE58FF4F8F4F94C680918000A4
:100340008F7707C0809180008F7D03C080918000EF
:10035000877F809380003AC084B58F7702C084B5D0
:100360008F7D84BD33C08091B0008F7703C08091B2
:10037000B0008F7D8093B00029C0809190008F776E
:1003800007C0809190008F7D03C080919000877F8F
:10039000809390001BC08091A0008F7707C0809150
:1003A000A0008F7D03C08091A000877F8093A00074
:1003B0000DC0809120018F7707C0809120018F7D33
:1003C00003C080912001877F80932001E92FF0E016
:1003D000EE0FFF1FE25BFE4FA591B4919FB7F8941B
:1003E000311104C08C912095282302C0EC912E2B52
:1003F0002C939FBF08952FB7F8946091CC02709111
:10040000CD028091CE029091CF022FBF0895CF925E
:10041000DF92EF92FF920F931F93CF93DF936C01C4
:100420007A018B01C0E0D0E0CE15DF0581F0D80164
:100430006D918D01D601ED91FC910190F081E02D3F
:10044000C6011995892B11F02196EECF7E01C701C7
:10045000DF91CF911F910F91FF90EF90DF90CF90A0
:100460000895089580E090E00895FC01538D448D37
:10047000252F30E0842F90E0821B930B541710F04F
:10048000CF96089501970895FC01918D828D98175C
:1004900061F0828DDF01A80FB11D5D968C91928D68
:1004A0009F5F9F73928F90E008958FEF9FEF089565
:1004B000FC01918D828D981731F0828DE80FF11D2E
:1004C000858D90E008958FEF9FEF0895FC01918D49
:1004D000228D892F90E0805C9F4F821B91098F7342
:1004E0009927089580ED92E0F1DF21E0892B09F44E
:1004F00020E0822F08958DE693E0E8DF21E0892B4C
:1005000009F420E0822F0895FC01848DDF01A80FFB
:10051000B11DA35ABF4F2C91848D90E001968F732B
:100520009927848FA689B7892C93A089B1898C914A
:10053000837080648C93938D848D981306C0028899
:10054000F389E02D80818F7D80830895EF92FF9263
:100550000F931F93CF93DF93EC0181E0888F9B8DE6
:100560008C8D981305C0E889F989808185FD25C0A7
:10057000F62E0B8D10E00F5F1F4F0F731127E02E2B
:100580008C8DE8120BC00FB607FCFACFE889F98909
:10059000808185FFF5CFCE01B7DFF2CF8B8DFE01D5
:1005A000E80FF11DE35AFF4FF0829FB7F8940B8FCD
:1005B000EA89FB89808180620AC09FB7F894EE893E
:1005C000FF896083E889F9898081837080648083F2
:1005D0009FBF81E090E0DF91CF911F910F91FF903D
:1005E000EF900895682F8DE693E0B0CFCF93DF931F
:1005F000EC01888D8823C1F0EA89FB89808185FD23
:1006000005C0A889B9898C9186FD0EC00FB607FC7C
:10061000F5CF808185FFF2CFA889B9898C9185FFBC
:10062000EDCFCE0171DFE8CFDF91CF91089580E06B
:1006300090E0892B19F05FDF811120C080E090E00D
:10064000892B41F080E090E0892B21F00E9400008E
:10065000811117C080E090E0892B41F080E090E0AC
:10066000892B21F00E94000081110EC080E090E0F3
:10067000892B79F037DF81110AC008950E940000AC
:10068000DDCF0E940000E6CF0E940000EFCF0C9467
:100690000000089542E050E068E172E080ED92E0F1
:1006A000B6CECF93DF93009771F0FC01019000204C
:1006B000E9F73197AF01481B590BBC0180ED92E07F
:1006C000A6DEEC0102C0C0E0D0E0E4DF8C0F9D1F8D
:1006D000DF91CF910895CF93DF93FC014481558141
:1006E0006081718180ED92E092DEEC01D3DF8C0FAE
:1006F0009D1FDF91CF910895FC018081918152C5AA
:10070000CF93DF93EC0188819981009709F04AD556
:10071000198218821D821C821B821A82DF91CF915E
:100720000895A9D60F931F93CF93DF93EC0188818F
:100730009981009729F02A813B812617370780F499
:100740008B016F5F7F4FB7D5009761F099838883E6
:100750001B830A832C813D81232B11F4FC01108221
:1007600081E001C080E0DF91CF911F910F9108954A
:10077000EF92FF920F931F93CF93DF93EC01FB0156
:1007800004811581E080F180E114F104B9F00115D4
:100790001105B1F08C819D81080F191FB801CE01A0
:1007A000C1DF882359F0288139818C819D81B7016F
:1007B000820F931F6DD61D830C8302C0CE01A0DF74
:1007C000CE01DF91CF911F910F91FF90EF9008958F
:1007D000EF92FF920F931F93CF93DF93EC017B0176
:1007E0008A01BA019FDF811103C0CE0189DF06C0F3
:1007F0001D830C83B701888199814AD6CE01DF9190
:10080000CF911F910F91FF90EF900895FC011182FD
:10081000108213821282158214826115710549F0CB
:10082000FB0101900020E9F73197AF01461B570B00
:10083000CFCF0895EF92FF920F931F93CF93DF9343
:10084000CDB7DEB729970FB6F894DEBF0FBECDBF88
:100850008C01862FF8011182108213821282158278
:10086000148250E09E012F5F3F4F7901B90190E063
:10087000C6D3F70101900020E9F73197AF014E1977
:100880005F09B701C801A4DF29960FB6F894DEBF4F
:100890000FBECDBFDF91CF911F910F91FF90EF90D1
:1008A00008958F929F92AF92BF92CF92DF92EF9274
:1008B000FF920F931F93CF93DF93CDB7DEB7C05155
:1008C000D2400FB6F894DEBF0FBECDBF61E08DE021
:1008D00015DD8BE192E0E5DE8EDD84EC99E0A0E0B1
:1008E000B0E08093710390937203A0937303B0936D
:1008F00074038E010F5F1F4F6801E12CF12C7BDD2B
:1009000060937503709376038093770390937803D5
:100910008DE693E0B9DD97FF1DC06DDD8090750316
:1009200090907603A0907703B0907803DC01CB0120
:1009300088199909AA09BB098090710390907203E4
:10094000A0907303B090740388159905AA05BB05A0
:10095000F8F23AC0F60181936F01FFEFEF1AFF0A38
:1009600089EFE81681E0F80651F6AE0147505E4F78
:1009700080E090E0DC01F80121918F01820F911D50
:10098000A11DB11D4E175F07B1F7FA0110811813B1
:100990001BC088EF90E026DE4AE0612FCE01855F24
:1009A0009D4F48DF63E572E0CE0186509E4F2EDFFB
:1009B000BE01655F7D4FCE0186509E4FD9DE8BDE36
:1009C000CE0186509E4F34C089EF90E00BDEC55FAC
:1009D000DD4F19821882CB50D240C35FDD4F1982A0
:1009E0001882CD50D240C15FDD4F19821882CF509E
:1009F000D2408E0106501E4F4AE0B801C70109D30C
:100A0000F80101900020E9F73197AF01401B510B2D
:100A1000B801CE01855F9D4FDBDE67E672E0C8015D
:100A2000F5DEBE01655F7D4FC801A2DE54DEC80160
:100A300063DECE01855F9D4F5FDE87E392E031DEAE
:100A400060E08DE05BDCC05FDD4F0FB6F894DEBF89
:100A50000FBECDBFDF91CF911F910F91FF90EF900F
:100A6000DF90CF90BF90AF909F908F9008951F928E
:100A70000F920FB60F9211242F933F938F939F9352
:100A8000AF93BF938091CC029091CD02A091CE0202
:100A9000B091CF023091CB0223E0230F2D3720F409
:100AA0000196A11DB11D05C026E8230F0296A11DC8
:100AB000B11D2093CB028093CC029093CD02A093E2
:100AC000CE02B093CF028091C7029091C802A0914C
:100AD000C902B091CA020196A11DB11D8093C7023F
:100AE0009093C802A093C902B093CA02BF91AF917C
:100AF0009F918F913F912F910F900FBE0F901F905C
:100B000018951F920F920FB60F9211240BB60F92E9
:100B10002F933F934F935F936F937F938F939F9305
:100B2000AF93BF93EF93FF9380ED92E0EDDCFF91E5
:100B3000EF91BF91AF919F918F917F916F915F9155
:100B40004F913F912F910F900BBE0F900FBE0F90C2
:100B50001F9018951F920F920FB60F9211240BB68B
:100B60000F922F938F939F93EF93FF93E091E00267
:100B7000F091E1028081E091E602F091E70282FDCE
:100B800012C090818091E9028F5F8F732091EA02F9
:100B9000821751F0E091E902F0E0E053FD4F958FAC
:100BA0008093E90201C08081FF91EF919F918F9125
:100BB0002F910F900BBE0F900FBE0F901F901895A6
:100BC0001F920F920FB60F9211240BB60F922F9314
:100BD0003F934F935F936F937F938F939F93AF93C5
:100BE000BF93EF93FF938DE693E08EDCFF91EF913F
:100BF000BF91AF919F918F917F916F915F914F9135
:100C00003F912F910F900BBE0F900FBE0F901F9032
:100C100018951F920F920FB60F9211240BB60F92D8
:100C20002F938F939F93EF93FF93E0917D03F09128
:100C30007E038081E0918303F091840382FD12C0E2
:100C40009081809186038F5F8F7320918703821735
:100C500051F0E0918603F0E0E359FC4F958F8093CB
:100C6000860301C08081FF91EF919F918F912F9119
:100C70000F900BBE0F900FBE0F901F901895E0EDD8
:100C8000F2E01382128248EE53E060E070E04483A9
:100C90005583668377838AE092E09183808325E39E
:100CA00031E03587248724E331E03787268720E346
:100CB00031E0318B208B21E331E0338B228B22E337
:100CC00031E0358B248B26E331E0378B268B118E78
:100CD000128E138E148EEDE6F3E01382128244839B
:100CE0005583668377839183808385EC90E0958735
:100CF000848784EC90E09787868780EC90E0918BE6
:100D0000808B81EC90E0938B828B82EC90E0958BD2
:100D1000848B86EC90E0978B868B118E128E138ECF
:100D2000148E0895CF93DF93CDB7DEB72C970FB60F
:100D3000F894DEBF0FBECDBF789484B5826084BDC9
:100D400084B5816084BD85B5826085BD85B58160CF
:100D500085BD80916E00816080936E00109281004D
:100D60008091810082608093810080918100816008
:100D700080938100809180008160809380008091C9
:100D8000B10084608093B1008091B0008160809355
:100D9000B0008091910082608093910080919100D9
:100DA0008160809391008091900081608093900099
:100DB0008091A10082608093A1008091A100816058
:100DC0008093A1008091A00081608093A000809119
:100DD00021018260809321018091210181608093B3
:100DE00021018091200181608093200180917A000F
:100DF000846080937A0080917A00826080937A0088
:100E000080917A00816080937A0080917A00806876
:100E100080937A001092C1008DE693E029DA80ED8C
:100E200092E026DA80E04BDA61E080E067DA8DE07C
:100E300046DA82E892E035DCBB24B3948091C602A6
:100E40008111C9C01092C5028DE693E03FDB029785
:100E50009CF08DE693E018DBF82E8DE693E014DB32
:100E6000E82E80E18F0D843018F4B092C5021FC0C7
:100E700085EF90E0B7DB1BC08DE693E027DB0197A1
:100E8000B1F4B9DA0091C1021091C2022091C302FB
:100E90003091C4020C501E4F2F4F3F4F6017710707
:100EA0008207930768F08DE693E0EEDA09C0A3DAD3
:100EB0006093C1027093C2028093C3029093C402F4
:100EC0008091C502882309F489C040E16F2DCE01CD
:100ED0000196B0DC6BE872E0CE01079697DCBE01AC
:100EE0006F5F7F4FCE01079643DC8C01FC01C4800D
:100EF000D580F3E0CF0ED11CB60114DC882309F4B1
:100F00007BC0F801208131818481958161E972E0A3
:100F1000820F931FBDD2F801D582C482F8014481AB
:100F200055816081718180ED92E071DACE01079682
:100F3000E3DBCE010196E0DBF1EFFF16F1F0FF15E8
:100F400048F080EFF81241C084EF90E04BDB85E978
:100F500092E01CC0E2EFFE16D9F0F3EFFF1235C0AD
:100F600084EF90E03FDBE092BE024AE06E2DCE01BE
:100F7000019660DC6CEA72E017C084EF90E032DB2F
:100F8000B092C002B092C6028FE992E08ADB26C01E
:100F900084EF90E027DBE092BF024AE06E2DCE01A5
:100FA000019648DC64EA72E0CE0107962FDCBE01B0
:100FB0006F5F7F4FCE010796DBDB8DDBCE0107969F
:100FC0009BDBCE01019698DB09C085EF90E00ADB40
:100FD00084EB92E0DBCF65DC1092C6028091C00208
:100FE000882341F09091BE028091BF02981302C005
:100FF0001092C0021CDB22CFC80182DB8FCF4532AA
:10100000510518F4423008F004C0FB011082CB01F6
:101010000895BB27FB015527AA27880F991FAA1FF0
:10102000A41710F0A41B83955051B9F7A05DAA3303
:1010300008F0A95DA193009779F7B111B1931192CE
:10104000CB0100C0DC01FC01672F71917723E1F730
:10105000329704C07C916D9370836291AE17BF0785
:10106000C8F30895EE0FFF1F881F8BBF0790F691FE
:10107000E02D19940F931F93CF93DF938230910546
:1010800010F482E090E0E0910C04F0910D0420E077
:1010900030E0A0E0B0E0309719F140815181028149
:1010A000138148175907C8F08417950769F41097FA
:1010B00031F012960C93129713961C9327C000934D
:1010C0000C0410930D0422C02115310519F04217AC
:1010D000530718F49A01BD01EF01DF01F801DBCFDE
:1010E00021153105F9F0281B390B2430310580F426
:1010F0008A819B816115710521F0FB0193838283B5
:1011000004C090930D0480930C04FE01329644C0F9
:10111000FE01E20FF31F819391932250310939832D
:1011200028833AC020910A0430910B04232B41F408
:10113000209102023091030230930B0420930A04A1
:1011400020910002309101022115310541F42DB7A3
:101150003EB74091040250910502241B350BE091EB
:101160000A04F0910B04E217F307A0F42E1B3F0BC7
:101170002817390778F0AC014E5F5F4F2417350709
:1011800048F04E0F5F1F50930B0440930A04819365
:10119000919302C0E0E0F0E0CF01DF91CF911F9189
:1011A0000F910895CF93DF93009709F481C0FC015C
:1011B000329713821282A0910C04B0910D04109703
:1011C00081F420813181820F931F20910A04309194
:1011D0000B042817390751F5F0930B04E0930A0428
:1011E00067C0ED0120E030E0CE17DF0740F44A8110
:1011F0005B819E0141155105F1F0EA01F5CFD383E2
:10120000C28340815181840F951FC817D90759F4B3
:1012100088819981840F951F0296918380838A81AA
:101220009B81938382832115310529F4F0930D046A
:10123000E0930C043DC0E901FB83EA834991599195
:10124000C40FD51FEC17FD0761F480819181840FD5
:10125000951F0296E90199838883828193819B83FC
:101260008A83E0E0F0E012968D919C9113970097AD
:1012700019F0FD01DC01F7CF8D919C9111979D0133
:101280002E5F3F4F820F931F20910A0430910B0471
:101290002817390769F4309729F410920D04109239
:1012A0000C0402C013821282B0930B04A0930A04B0
:1012B000DF91CF9108956F927F928F929F92AF921C
:1012C000BF92CF92DF92EF92FF920F931F93CF9333
:1012D000DF93009781F4CB01DF91CF911F910F91A4
:1012E000FF90EF90DF90CF90BF90AF909F908F9046
:1012F0007F906F90BFCEFC01E60FF71F9C0122503C
:101300003109E217F30708F4A5C0EC01D9010D91EA
:101310001C91119706171707A8F00530110508F45E
:1013200097C0C80104978617970708F491C0025028
:101330001109061B170B019311936D937C93CF0139
:1013400031DF86C05B01A01AB10A4C01800E911EEC
:10135000A0910C04B0910D04612C712CE12CF12CA6
:10136000109709F446C08D919C911197A815B90565
:10137000B1F56C0142E0C40ED11CCA14DB0478F153
:101380004C018A189B08640142E0C40ED11C1296DD
:10139000BC9012971396AC91B5E0CB16D10440F0F7
:1013A000B282A38391828082D9016D937C9309C01C
:1013B0000E5F1F4F800F911FF90191838083EB2DEA
:1013C000FA2FE114F10431F0D7011396FC93EE9358
:1013D00012973EC0F0930D04E0930C0439C06816D8
:1013E000790608F43C017D0112960D90BC91A02D68
:1013F000B7CF80910A0490910B0488169906E1F406
:1014000066167706C8F48091000290910102009759
:1014100041F48DB79EB74091040250910502841BA0
:10142000950BE817F907B0F4F0930B04E0930A0466
:10143000F901718360830CC0CB011CDE7C01009735
:1014400049F0A801BE011BD0CE01ACDEC70104C02B
:10145000CE0102C080E090E0DF91CF911F910F910B
:10146000FF90EF90DF90CF90BF90AF909F908F90C4
:101470007F906F90089581E090E0F89410C0FB0198
:10148000DC0102C001900D9241505040D8F7089500
:10149000FB01DC0101900D920020E1F70895F89422
:0214A000FFCF7C
:1014A20000000E04800000000000A60207023502C0
:1014B200F6026602440258020D0A00456E74726119
:1014C200646F20656E206D6F646F20726563696260
:1014D2006972486F6A610053616C69646120646576
:1014E2006C206D6F646F2072656369626972486F08
:1014F2006A6100524543455043494F4E204F4B20AD
:101502004353554D3A200054494D454F55542C20D4
:10151200425954455320524543494249444F533A54
:101522002000494E49434941444F00434D443A202B
:1015320000202D200048414E445348414B45005065
:1015420052455000485F544F543A2000485F41438F
:0E155200543A2000494E56414C49444F000087
:00000001FF
