:10000000F5C0000022C1000020C100001EC1000098
:100010001CC100001AC1000018C1000016C1000078
:1000200014C1000012C1000010C100000EC1000088
:100030000CC100000AC1000008C1000006C1000098
:1000400004C1000002C1000000C10000FEC00000A9
:10005000FCC00000FAC00000F8C000005EC500004F
:10006000F4C0000024C50000F9C40000EEC0000088
:10007000ECC00000EAC00000E8C00000E6C00000DC
:10008000E4C00000E2C00000E0C00000DEC00000EC
:10009000DCC00000DAC00000D8C00000D6C00000FC
:1000A000D4C00000D2C00000D0C00000CEC000000C
:1000B000CCC00000CAC00000C8C00000C6C000001C
:1000C000C4C00000C2C00000C0C00000BEC000002C
:1000D000BCC00000BAC000008BC4000060C40000B7
:1000E000B4C0000000000A0B02090C0D0E08070343
:1000F00004010000000000000000000000000000FB
:1001000000000000000000000000000000000000EF
:1001100012111000000000000000000000000000AC
:100120000000000000000000000000002200250088
:1001300028002B002E0031003400020100000501D0
:1001400008010B0100002100240027002A002D00D7
:100150003000330001010000040107010A01050518
:100160000505070508080808020202020A0A08082D
:10017000040404040101010101010101030303035B
:1001800003030303040707070C0C0C0C0C0C0C0CEA
:100190000202020206060606060606060B0B0B0BFB
:1001A0000B0B0B0B01021020200808102040102020
:1001B000408002010201080402010102040810202B
:1001C0004080804020100804020180040201804029
:1001D0002010080402010804020101020408102092
:1001E00040800102040810204080D70511241FBE62
:1001F000CFEFD1E2DEBFCDBF00E00CBF26E0A0EE26
:10020000B2E001C01D92A932B207E1F712E0A0E00E
:10021000B2E0E0E7F5E100E00BBF02C007900D920D
:10022000A03EB107D9F710E0C6EFD0E000E005C06E
:1002300021970109802FFE0180D7C53FD10780E0BB
:100240000807B1F707D50C94B60ADACEFC01A089ED
:10025000B18982E08C93A485B5851C92A685B7856B
:1002600080E18C93108EA489B58986E08C93A28955
:10027000B3898C9180618C93A289B3898C918860B9
:100280008C93A289B3898C9180688C930288F389BE
:10029000E02D80818F7D8083089590E0FC01EC55F6
:1002A000FE4F2491825A9E4FFC018491882399F03D
:1002B00090E0880F991FFC01EC5BFE4FA591B49173
:1002C000FC01E65DFE4F859194918FB7F894EC9117
:1002D000E22BEC938FBF0895AF92BF92CF92DF9243
:1002E000EF92FF920F931F93CF93DF936C017B01EB
:1002F0008B01040F151FEB015E01AE18BF08C0177C
:10030000D10759F06991D601ED91FC910190F081EE
:10031000E02DC6011995892B79F7C501DF91CF91A1
:100320001F910F91FF90EF90DF90CF90BF90AF9013
:100330000895FC01538D448D252F30E0842F90E0EB
:10034000821B930B541710F0CF96089501970895D0
:10035000FC01918D828D981761F0A28DAE0FBF2F99
:10036000B11D5D968C91928D9F5F9F73928F90E0EF
:1003700008958FEF9FEF0895FC01918D828D98175E
:1003800031F0828DE80FF11D858D90E008958FEF9B
:100390009FEF0895FC01918D228D892F90E0805C64
:1003A0009F4F821B91098F73992708958BEE94E0DC
:1003B000F1DF21E0892B09F420E0822F089588E8FD
:1003C00095E0E8DF21E0892B09F420E0822F0895F1
:1003D000FC01A48DA80FB92FB11DA35ABF4F2C91BA
:1003E000848D90E001968F739927848FA689B789B1
:1003F0002C93A089B1898C91837080648C93938DA8
:10040000848D981306C00288F389E02D80818F7D4A
:1004100080830895EF92FF920F931F93CF93DF9302
:10042000EC0181E0888F9B8D8C8D98131AC0E88930
:10043000F989808185FF15C09FB7F894EE89FF89FF
:100440006083E889F98980818370806480839FBF9D
:1004500081E090E0DF91CF911F910F91FF90EF909D
:100460000895F62E0B8D10E00F5F1F4F0F731127AD
:10047000E02E8C8D8E110BC00FB607FCFACFE889E9
:10048000F989808185FFF5CFCE01A2DFF2CFEB8D18
:10049000EC0FFD2FF11DE35AFF4FF0829FB7F89448
:1004A0000B8FEA89FB8980818062D0CF682F88E832
:1004B00095E0B0CFCF93DF93EC01888D8823B1F026
:1004C000AA89BB89E889F9898C9185FD03C080815F
:1004D00086FD0CC00FB607FCF7CF8C9185FFF2CFDD
:1004E000808185FFEDCFCE0173DFEACFDF91CF9121
:1004F0000895282F30E0F901EC51FF4F9491F90154
:10050000EC55FE4F4491225A3E4FF901249122238B
:1005100009F434C0992309F191509231F0F4E92F94
:10052000F0E08827EA56FD4F8F4F07C6C702CB027F
:10053000A802BF02C302AD02CE02D402D802DE027C
:10054000E202E602EC02F002AD02F402FA02FE025E
:10055000809180008F7780938000E22FF0E0EE0F93
:10056000FF1FE65DFE4FA591B4918FB7F894EC9113
:10057000611148C040954E234C938FBF08958091E0
:1005800080008F7DE8CF80918000877FE4CF84B5A5
:100590008F7784BDE2CF84B58F7DFBCF8091B00093
:1005A0008F778093B000D9CF8091B0008F7DF9CF45
:1005B000809190008F7780939000CFCF80919000B2
:1005C0008F7DF9CF80919000877FF5CF8091A0003B
:1005D0008F778093A000C1CF8091A0008F7DF9CF4D
:1005E0008091A000877FF5CF809120018F77809345
:1005F0002001B3CF809120018F7DF9CF8091200120
:10060000877FF5CF4E2BB8CF2FB7F8946091E502D6
:100610007091E6028091E7029091E8022FBF089561
:100620000F931F93CF93DF93EC01EEDF68877987F9
:100630008A879B87CE018CDE97FF14C0E5DF088593
:1006400019852A853B85601B710B820B930B0C81EE
:100650001D812E813F81601771078207930750F338
:100660008FEF9FEFDF91CF911F910F910895089524
:10067000CF93DF9300D0CDB7DEB798EF99838A830D
:100680006B8343E050E0BE016F5F7F4F88E895E0E9
:1006900023DE0F900F900F90DF91CF91089542E0ED
:1006A00050E068E172E08BEE94E016CECF93DF93DA
:1006B000FC0101900020E9F73197AF01481B590B6D
:1006C000BC018BEE94E008DEEC01E9DF8C0F9D1F8E
:1006D000DF91CF910895CF93DF93FC014481558141
:1006E000608171818BEE94E0F7DDEC01D8DF8C0F37
:1006F0009D1FDF91CF9108950F931F93CF93DF93A9
:10070000EC0188819981009759F02A813B81261755
:10071000370730F081E0DF91CF911F910F9108955D
:100720008B016F5F7F4F36D6009759F0998388838E
:100730001B830A832C813D81232B61F7FC011082EE
:10074000E9CF80E0E8CFEF92FF920F931F93CF9312
:10075000DF936115710541F480E0DF91CF911F9126
:100760000F91FF90EF90089541155105A1F07B0185
:10077000EC010C811D81040F151FB801BDDF88231A
:1007800059F3288139818C819D81B701820F931F94
:10079000E6D61D830C8381E0E0CFCF93DF93EC019D
:1007A00088819981009709F06CD5198218821D8281
:1007B0001C821B821A82DF91CF910895CF93DF9321
:1007C000EC01FB014481558160817181BCDF8111A5
:1007D00002C0CE01E2DFCE01DF91CF910895EF920A
:1007E000FF920F931F93CF93DF93EC017B018A015C
:1007F000BA0182DF81110AC0CE01CFDFCE01DF91C5
:10080000CF911F910F91FF90EF9008951D830C835E
:10081000B70188819981A3D6F1CFEF92FF920F9310
:100820001F93CF93DF9300D000D000D0CDB7DEB7B9
:100830008C01862FF8011182108213821282158298
:10084000148250E09E012F5F3F4F7901B90190E083
:1008500041D4F70101900020E9F73197AF014E191B
:100860005F09B701C801BBDF29960FB6F894DEBF58
:100870000FBECDBFDF91CF911F910F91FF90EF90F1
:100880000895FC0111821082138212821582148253
:10089000FB0101900020E9F73197AF01461B570B90
:1008A0009ECFFC0180819181ECC4CF93DF9300D077
:1008B00000D01F921F92CDB7DEB76AE172E0CE0181
:1008C0000196DFDF8BEE94E0ABDE97FD0EC08A3041
:1008D000910559F08F83188641E050E0BE01695FB1
:1008E0007F4FCE0101962FDFEDCF89819A8100974E
:1008F00061F0B5D3623071058105910521F18CF469
:100900006130710581059105D1F0CE010196C9DFF5
:1009100028960FB6F894DEBF0FBECDBFDF91CF9102
:100920000895633071058105910581F0643071058A
:100930008105910551F76091E20484EA02C060E00C
:1009400081EA96DEE2CF60E082EAFBCF60E083EAF4
:10095000F8CF80E090E0892B21F031DD81110E94F9
:10096000000080E090E0892B49F080E090E0892B46
:1009700029F00E94000081110E94000080E090E0B8
:10098000892B49F080E090E0892B29F00E9400003B
:1009900081110E9400000ADD811187CF08951F9206
:1009A0000F920FB60F9211240BB60F922F933F9315
:1009B0004F935F936F937F938F939F93AF93BF9367
:1009C000EF93FF938BEE94E003DDFF91EF91BF91E6
:1009D000AF919F918F917F916F915F914F913F91D7
:1009E0002F910F900BBE0F900FBE0F901F90189578
:1009F0001F920F920FB60F9211240BB60F922F93E6
:100A00008F939F93EF93FF93E091FB04F091FC048D
:100A10008081E0910105F091020582FD1DC0908169
:100A2000809104058F5F8F7320910505821741F037
:100A3000E0910405F0E0E551FB4F958F80930405AC
:100A4000FF91EF919F918F912F910F900BBE0F907F
:100A50000FBE0F901F9018958081F2CF1F920F92BA
:100A60000FB60F9211240BB60F922F933F934F9313
:100A70005F936F937F938F939F93AF93BF93EF9306
:100A8000FF9388E895E0A4DCFF91EF91BF91AF91CF
:100A90009F918F917F916F915F914F913F912F9196
:100AA0000F900BBE0F900FBE0F901F9018951F92C6
:100AB0000F920FB60F9211240BB60F922F938F93B4
:100AC0009F93EF93FF93E0919805F09199058081B2
:100AD000E0919E05F0919F0582FD1DC0908180915F
:100AE000A1058F5F8F732091A205821741F0E091DD
:100AF000A105F0E0E857FA4F958F8093A105FF918B
:100B0000EF919F918F912F910F900BBE0F900FBE81
:100B10000F901F9018958081F2CF1F920F920FB601
:100B20000F9211242F933F938F939F93AF93BF9373
:100B30008091E5029091E602A091E702B091E8026F
:100B40003091E40223E0230F2D3758F50196A11DC3
:100B5000B11D2093E4028093E5029093E602A093F6
:100B6000E702B093E8028091E0029091E102A09147
:100B7000E202B091E3020196A11DB11D8093E00253
:100B80009093E102A093E202B093E302BF91AF9190
:100B90009F918F913F912F910F900FBE0F901F90BB
:100BA000189526E8230F0296A11DB11DD2CFEBEEBA
:100BB000F4E01382128248EE53E060E070E0448378
:100BC0005583668377838AE092E09183808325E36F
:100BD00031E03587248724E331E03787268720E317
:100BE00031E0318B208B21E331E0338B228B22E308
:100BF00031E0358B248B26E331E0378B268B118E49
:100C0000128E138E148EE8E8F5E01382128244836C
:100C10005583668377839183808385EC90E0958705
:100C2000848784EC90E09787868780EC90E0918BB6
:100C3000808B81EC90E0938B828B82EC90E0958BA3
:100C4000848B86EC90E0978B868B118E128E138EA0
:100C5000148E0895CF93DF93CDB7DEB76D970FB69F
:100C6000F894DEBF0FBECDBF789484B5826084BD9A
:100C700084B5816084BD85B5826085BD85B58160A0
:100C800085BD80916E00816080936E00109281001E
:100C900080918100826080938100809181008160D9
:100CA000809381008091800081608093800080919A
:100CB000B10084608093B1008091B0008160809326
:100CC000B0008091910082608093910080919100AA
:100CD000816080939100809190008160809390006A
:100CE0008091A10082608093A1008091A100816029
:100CF0008093A1008091A00081608093A0008091EA
:100D00002101826080932101809121018160809383
:100D100021018091200181608093200180917A00DF
:100D2000846080937A0080917A00826080937A0058
:100D300080917A00816080937A0080917A00806847
:100D400080937A001092C10088E895E07FDA8BEEFC
:100D500094E07CDA80E0A1DA61E080E0CADB8DE03B
:100D60009CDA8BE192E0A2DC94EC492E99E0592EBA
:100D7000612C712C8E010F5F1F4F8091EA0481114D
:100D8000C1C01092E90488E895E004DB0297ECF01A
:100D900088E895E0DDDAF82E88E895E0D9DAE82EE3
:100DA00080E18F0D843068F481E08093E9042CDCCD
:100DB0006093E5047093E6048093E7049093E8045D
:100DC00020C085EF90E072DBF2CF88E895E0E2DAB0
:100DD000019769F719DCAB01BC018091E5049091A2
:100DE000E604A091E704B091E8048C509E4FAF4F09
:100DF000BF4F481759076A077B0718F088E895E046
:100E0000A7DA8091E904882309F44AC040E16F2DF4
:100E1000C80103DD64E272E0CE01429632DDB80122
:100E2000CE014296CBDC6C0143E050E06AE272E016
:100E30008ADC811102C0C601B0DCF6014481558113
:100E4000608171818BEE94E047DACE01429629DD14
:100E5000C80127DDF1EFFF1689F1FF1548F080EF9B
:100E6000F816C1F085EF90E021DB8DE492E017C029
:100E700092EFF91671F1E3EFFE12F4CF84EF90E0F8
:100E800015DBE092E2044AE06E2DC801C6DC65E4A1
:100E900072E02AC084EF90E009DB8EE292E006DC8B
:100EA0008091E404882341F09091E2048091E3046E
:100EB000981302C01092E4044CDD5FCF84EF90E001
:100EC000F5DA81E08093E4048093EA0488E392E019
:100ED000E6CF84EF90E0EADAE092E3044AE06E2D98
:100EE000C8019BDC6DE372E0CE014296CADCB8011A
:100EF000CE01429663DCEFDBCE014296D2DCC80124
:100F0000D0DCCECF61E08DE0F4DA86E592E0CEDB96
:100F10007BDB40928C0550928D0560928E0570921D
:100F20008F0589EE282E82E0382E4101D12CC12C6C
:100F300088E895E075DB97FD6AC0F40181934F0165
:100F4000FFEFCF1ADF0A89EFC81681E0D80681F7D4
:100F5000812C912C5401F10181911F01880E911C6B
:100F6000A11CB11C81EE94E08E179F07A1F7D090D1
:100F7000E104D81409F436C087EF90E097DA4AE02C
:100F8000682DC8014ADC4AE06D2DCE01429645DC51
:100F900062E772E0CE01489674DCBE016E5E7F4F60
:100FA000CE0148960BDC6C0148E050E06BE872E043
:100FB000CADB811102C0C601F0DBB801C601FEDB4D
:100FC0008ADBCE0148966DDCCE0142966ADCC80110
:100FD00068DC88EA92E06ADB60E08DE08ADA1092F1
:100FE000EA045ECF86EF90E061DA4AE06D2DC80139
:100FF00014DC64E972E0CE01429643DCB801CE0114
:101000004296DCDB68DBCE0142964BDCE0CF87EF1B
:1010100090E04CDA1B8A1A8A1D8A1C8A1F8A1E8A53
:101020004AE0B801C60160D0F80101900020E9F75C
:101030003197AF01401B510BB801CE014296CFDB77
:1010400064EC72E0C8011DDCBE016E5E7F4FC8011A
:10105000B5DB41DBC80125DCCE014296B9CF1F9339
:10106000FC0199278827BC01E89411911032E9F31B
:10107000193010F01E30C8F31B3249F01D3241F414
:10108000689405C012D0610F711D811D911D1191D1
:1010900010531A30B8F33EF4909580957095619591
:1010A0007F4F8F4F9F4F1F910895592F482F372FF4
:1010B000262F660F771F881F991F660F771F881FBF
:1010C000991F620F731F841F951F660F771F881F5C
:1010D000991F08954532510518F4423008F004C0B4
:1010E000FB011082CB010895BB27FB015527AA27DE
:1010F000880F991FAA1FA41710F0A41B83955051A5
:10110000B9F7A05DAA3308F0A95DA193009779F71C
:10111000B111B1931192CB0100C0DC01FC01672F2A
:1011200071917723E1F7329704C07C916D937083BE
:101130006291AE17BF07C8F30895EE0FFF1F881F17
:101140008BBF0790F691E02D19940F931F93CF93C7
:10115000DF938230910510F482E090E0E091270661
:10116000F091280630E020E0B0E0A0E0309799F45C
:101170002115310509F44AC0281B390B24303105EB
:10118000D8F58A819B816115710589F1FB019383F3
:101190008283FE0111C04081518102811381481771
:1011A0005907E0F04817590799F4109761F0129623
:1011B0000C93129713961C933296CF01DF91CF9127
:1011C0001F910F9108950093270610932806F4CFDE
:1011D0002115310551F04217530738F0A901DB0101
:1011E0009A01BD01DF01F801C1CFEF01F9CF909362
:1011F000280680932706CDCFFE01E20FF31F8193CF
:1012000091932250310939832883D7CF2091250625
:1012100030912606232B41F42091020230910302E3
:10122000309326062093250620910002309101027A
:101230002115310541F42DB73EB74091040250917C
:101240000502241B350BE0912506F0912606E217D6
:10125000F307A0F42E1B3F0B2817390778F0AC01D9
:101260004E5F5F4F2417350748F04E0F5F1F5093B6
:10127000260640932506819391939FCFF0E0E0E00E
:101280009CCFCF93DF930097E9F0FC013297138254
:101290001282A0912706B0912806ED0130E020E0EF
:1012A0001097A1F420813181820F931F2091250690
:1012B000309126062817390709F061C0F0932606F9
:1012C000E0932506DF91CF910895EA01CE17DF075D
:1012D000E8F54A815B819E0141155105B1F7E901AD
:1012E000FB83EA8349915991C40FD51FEC17FD0781
:1012F00061F4808191810296840F951FE9019983A1
:101300008883828193819B838A83F0E0E0E0129658
:101310008D919C9113970097B9F52D913C91119760
:10132000CD010296820F931F20912506309126064B
:101330002817390739F6309751F510922806109280
:101340002706B0932606A0932506BCCFD383C2837D
:1013500040815181840F951FC817D90761F44E5FF2
:101360005F4F88819981480F591F518340838A813B
:101370009B81938382832115310509F0B0CFF093CF
:101380002806E09327069ECFFD01DC01C0CF138223
:101390001282D7CF4F925F926F927F928F929F92DD
:1013A000AF92BF92CF92DF92EF92FF920F931F9373
:1013B000CF93DF938C01009791F4CB01DF91CF9114
:1013C0001F910F91FF90EF90DF90CF90BF90AF9063
:1013D0009F908F907F906F905F904F90B6CEFC0162
:1013E000E60FF71F9C0122503109E217F30708F4BA
:1013F000AAC0D901CD91DC911197C617D70718F172
:10140000C530D10570F0CE0104978617970748F0D4
:10141000C61BD70B2297C193D1936D937C93CF01B9
:1014200030DFC801DF91CF911F910F91FF90EF90B6
:10143000DF90CF90BF90AF909F908F907F906F90F4
:101440005F904F9008955B01AC1ABD0A4C018C0E61
:101450009D1EA0912706B0912806512C412CF12CFD
:10146000E12C109731F5809125069091260688157C
:10147000990509F05CC04616570608F058C08091DF
:10148000000290910102009741F48DB79EB7409100
:10149000040250910502841B950BE817F90708F028
:1014A00052C0F0932606E0932506F901718360830C
:1014B000B8CF8D919C91119712966C9012971396BC
:1014C0007C901397A815B90559F56C0142E0C40E3C
:1014D000D11CCA14DB0420F1AC014A195B09DA0102
:1014E0001296159780F06282738251834083D901EE
:1014F0006D937C93E114F10471F0D7011396FC9382
:10150000EE9312978ECF22968C0F9D1FF901918337
:101510008083F301EFCFF0932806E093270681CF75
:101520004816590608F42C017D01D3019ACFCB014E
:101530000CDE7C01009739F0AE01B80107D0C8017C
:10154000A0DE87016ECF10E000E06BCFFB01DC0175
:1015500002C001900D9241505040D8F70895FB0110
:10156000DC0101900D920020E1F70895F894FFCF7F
:10157000000029068000000000000A026C019901A9
:101580005A02CA01A801BC010D0A00494E4943494B
:1015900041444F00434D443A2000202D2000484153
:1015A0004E445348414B45005052455000485F540B
:1015B0004F543A2000485F4143543A2000494E5668
:1015C000414C49444F00456E747261646F20656EF2
:1015D000206D6F646F2072656369626972486F6A1B
:1015E0006100524543455043494F4E204641494CC6
:1015F000204353554D2050433A2000202D20455381
:10160000503A2000524543455043494F4E204F4BDE
:10161000204353554D3A200053616C696461206446
:10162000656C206D6F646F207265636962697248D2
:101630006F6A610054494D454F55542C204259540E
:10164000455320524543494249444F533A200000F4
:00000001FF
